:0A0FF600FFFFFFFFFFFFF65AA5AF53
:100A350075865A120BA3120BD575FAFE75F9EF756B
:100A4500E410E4F5FB75313C75865AE5338532F0E3
:100A55001208F60A7102390A76025F0A6C02770AF1
:100A65007B027E00000A80753101800F753114808C
:100A75000A753132800575313C8000AF31120AE9C3
:100A8500E53064017042F530E5338532F01208F641
:100A95000AA5026F0AB4027B0AB9027D00000AC8E2
:100AA500E531C39414401A74F62531F5318012638B
:100AB5002CFF800FE531D394325006740A2531F5A9
:100AC500318000AF31120AE9E52CB4FF11E5903011
:100AD500E006752E01020A4DE4F52E020A4DE4F5F5
:040AE5002E020A4D86
:0A0BEE00C0F9A4B0999282F880903B
:020AE9008F215B
:100AEB0078227C007D007BFF7A0B79EE7E007F0AFB
:100AFB001208D0C287D282C283E52175F00A842402
:100B0B0022F8E6F5907F0A120BBC7590FF7F01125D
:100B1B000BBCD287C282D283E52175F00A84742282
:100B2B0025F0F8E6F5907F0A120BBC7590FF7F015C
:030B3B00020BBCEE
:100BA300758D9B758B9B758C9B758A9B75896675FB
:090BB300E72275885075A88A221A
:0D0BD50075CDE575CCF5E4F5C843A8A02268
:03002B00020B7D48
:020B7D00C0E0D6
:100B7F0075CDE575CCF5E5C030E61653C0BF200046
:100B8F0006C285D200800A300007C200D28575C820
:010B9F000055
:030BA000D0E03270
:03001B00020B3E97
:040B3E00C0E0C0D083
:100B42000508E508C3940A500DE58030E404050960
:100B52008024050A8020750800E509D3950A40071C
:100B6200752F01D2808005752F00C280750900752E
:060B72000A00D203C28E4E
:050B7800D0D0D0E032F6
:03000B00020923C4
:0D092300C0E0C0D075D000C004C006C00701
:100930000516E516C394644005751600B280E5807F
:10094000541065196019D202E58020E404D28E05A6
:1009500015750D00750E00E5805410F519800B30EB
:100960000208050EE50E7002050DE50EB45810E5FF
:100970000DB4020B7515000512E51270020511E5A4
:100980000EB4DC10E50DB4050BC202750D00750E3A
:1009900000752D01E515C394014049300346C2039B
:1009A000E50C25E0FFE50B33FE7C00EF252FF50C71
:1009B000EC3EF50BE515B40C2BE510B50C15E50F69
:1009C000B50B10C203850B13850C14750B00750C49
:1009D000008006850B0F850C10750B00750C0075DB
:1009E0001500C203E5A0540165176008D201E5A017
:1009F0005401F5173001020518E518C3953140136D
:100A0000E52EB4010975CDFF75CCFE75C8017518CA
:100A100000C201E52DB40112753001752D0085135A
:0A0A200032851433751300751400BD
:0B0A2A00D007D006D004D0D0D0E032BE
:100BBC00E4FEEEC39F5011E4FD00000000000000B5
:080BCC00000DBD02F40E80EAE9
:010BD40022FE
:03000000020BE20E
:0C0BE200787FE4F6D8FD758133020A35F7
:10080000E709F608DFFA8046E709F208DFFA803EDA
:1008100088828C83E709F0A3DFFA8032E309F608C7
:10082000DFFA8078E309F208DFFA807088828C832F
:10083000E309F0A3DFFA806489828A83E0A3F608E3
:10084000DFFA805889828A83E0A3F208DFFA804CBD
:1008500080D280FA80C680D4806980F28033801094
:1008600080A680EA809A80A880DA80E280CA8033FD
:1008700089828A83ECFAE493A3C8C582C8CCC58375
:10088000CCF0A3C8C582C8CCC583CCDFE9DEE78045
:100890000D89828A83E493A3F608DFF9ECFAA9F0C4
:1008A000EDFB2289828A83ECFAE0A3C8C582C8CC1A
:1008B000C583CCF0A3C8C582C8CCC583CCDFEADE33
:1008C000E880DB89828A83E493A3F208DFF980CC95
:1008D00088F0EF60010E4E60C388F0ED2402B4048E
:1008E0000050B9F582EB2402B4040050AF23234535
:0608F00082239008507302
:1008F600D083D082F8E4937012740193700DA3A391
:1009060093F8740193F5828883E473740293B5F0C7
:0D091600067403936860E9A3A3A3A380D82F
:00000001FF
