:0A0FF600FFFFFFFFFFFFF65AA5AF53
:1002740075865A12041912000E75FAFE75F9EF7597
:10028400E410E4F5FB75313C75865AE5338532F0AC
:1002940012024702B0023902B5025F02AB027702D2
:1002A400BA027E000002BF753101800F75311480DF
:1002B4000A753132800575313C8000AF3112033349
:1002C400E5306401704AF530E5338532F0120247B7
:1002D40002E4026F02F7027B02FC027D0000030FBE
:1002E400C3E531941474809480401E74F62531F56E
:1002F400318016632CFF8013D3E5319432748094DB
:10030400805006740A2531F5318000AF3112033371
:10031400E52CF47014E590540164017006752E0107
:0F03240002028CE4F52E02028CE4F52E02028C0C
:0A043200C0F9A4B0999282F88090FE
:020333008F2118
:1003350078227C007D007BFF7A0479327E007F0A7B
:10034500120221C287D282C283E52175F00A842474
:1003550022F8E6F5907F0A1203F77590FF7F0112E8
:1003650003F7D287C282D283E52175F00A8474220D
:1003750025F0F8E6F5907F0A1203F77590FF7F01E7
:030385000203F779
:10041900758D9B758B9B758C9B758A9B758966758C
:09042900E72275885075A88A22AB
:0D000E0075CDE575CCF5E4F5C843A8A0223A
:03002B000203CEFF
:0203CE00C0E08D
:1003D00075CDE575CCF5E5C054406440701653C04A
:1003E000BF200006C285D200800A300007C200D2BA
:0403F0008575C80047
:0303F400D0E03224
:03001B0002038855
:04038800C0E0C0D041
:10038C000508C3E508940A748094805010E58054E5
:10039C00106410700405098024050A80207508007B
:1003AC00E509D3950A4007752F01D2808005752F7A
:0D03BC0000C280750900750A00D203C28ED0
:0503C900D0D0D0E032AD
:03000B0002002EC2
:10002E00C0E0C0D075D000C002C004C005C006C07C
:01003E0007BA
:10003F000516C3E516946474809480400575160008
:10004F00B280E58054106519601AD202E580541011
:10005F007004D28E0515750D00750E00E5805410D5
:10006F00F519800B300208050EE50E7002050DE53F
:10007F000EB45810E50DB4020B7515000512E512FC
:10008F0070020511E50EB4DC10E50DB4050BC202CC
:10009F00750D00750E00752D01E515FDC3940174E6
:1000AF008094804049300346C203E50C25E0FFE50C
:1000BF000B33FE7A00EF252FF50CEA3EF50BED64BE
:1000CF000C702BE510B50C15E50FB50B10C20385A1
:1000DF000B13850C14750B00750C008006850B0F28
:1000EF00850C10750B00750C00751500C203E5A08B
:1000FF00540165176008D201E5A05401F5173001CE
:10010F00020518E518C395314014E52E64017009F6
:10011F0075CDFF75CCFE75C801751800C201E52DB0
:10012F006401700F753001F52D851332851433F589
:03013F0013F514A1
:0F014200D007D006D005D004D002D0D0D0E03204
:1003F700E4FEEEC39F501AE4FDEDC39402748094AB
:1004070080500B00000000000000000D80EB0E8004
:01041700E103
:0104180022C1
:0300000002001EDD
:0C001E00787FE4F6D8FD7581330202748F
:10015100E709F608DFFA8046E709F208DFFA803E90
:1001610088828C83E709F0A3DFFA8032E309F6087D
:10017100DFFA8078E309F208DFFA807088828C83E5
:10018100E309F0A3DFFA806489828A83E0A3F60899
:10019100DFFA805889828A83E0A3F208DFFA804C73
:1001A10080D280FA80C680D4806980F2803380104A
:1001B10080A680EA809A80A880DA80E280CA8033B3
:1001C10089828A83ECFAE493A3C8C582C8CCC5832B
:1001D100CCF0A3C8C582C8CCC583CCDFE9DEE780FB
:1001E1000D89828A83E493A3F608DFF9ECFAA9F07A
:1001F100EDFB2289828A83ECFAE0A3C8C582C8CCD0
:10020100C583CCF0A3C8C582C8CCC583CCDFEADEE8
:10021100E880DB89828A83E493A3F208DFF980CC4A
:1002210088F0EF60010E4E60C388F0ED2402B40443
:100231000050B9F582EB2402B4040050AF232345EA
:0602410082239001A1736D
:10024700D083D082F8E4937012740193700DA3A346
:1002570093F8740193F5828883E473740293B5F07D
:0D026700067403936860E9A3A3A3A380D8E5
:00000001FF
