:0A0FF600FFFFFFFFFFFFF65AA5AF53
:1002A20075865A12045E12000E75FAFE75F9EF7524
:1002B200E410E4F5FB75333C75865AE5358534F078
:1002C20012027502DE023902E3025F02D9027702EC
:1002D200E8027E000002ED753301800F7533148051
:1002E2000A753332800575333C8000AF331203CB7D
:1002F200E53264017049F532E5358534F012027554
:100302000312026F0325027B0329027D0000033CD6
:10031200C3E533941474809480401D74F62533F53C
:10032200338015B2048013D3E53394327480948001
:100332005006740A2533F5338000AF331203CB2005
:100342000414E5905401640170067530010202BA8A
:0C035200E4F5300202BAE4F5300202BA11
:0A047700C0F9A4B0999282F88090B9
:0203CB008F247D
:1003CD0078257C007D007BFF7A0479777E007F0A9B
:1003DD0012024FC287D282C283E52475F00A8424AB
:1003ED0025F8E6F5907F0A1204207590FF7F011223
:1003FD000420D287C282D283E52475F00A84742545
:10040D0025F0F8E6F5907F0A1204207590FF7F0124
:03041D00020420B6
:10045E00758D9B758B9B758C9B758A9B7589667547
:09046E00E72275885075A88A2266
:0D000E0075CDE575CCF5E4F5C843A8A0223A
:03002B000204428A
:1004420075CDE575CCF553C0BF200005C285D2003D
:0B04520032300007C200D28575C800E0
:01045D00326C
:03001B0002035E7F
:09035E00C0E0C0D075D000C0075A
:100367000508C3E508940A748094805034E4FFEFCD
:10037700C394057480948050130000E58054106482
:100387001070040522800205210F80E3E521D39533
:10039700224004050A8002050975220075210080A4
:1003A7001C750800E509D3950A40057531018003DE
:0D03B700753100750900750A00D203C28E71
:0703C400D007D0D0D0E032D9
:03000B0002002EC2
:0F002E00C0E0C0D075D000C002C005C006C0073A
:10003D000516C3E51694647480948040057516000A
:10004D00B280E4FFEFC3940574809480500F0000DC
:10005D00E58054106519600205230F80E7D3E52371
:10006D0094037480948040027D01752300ED64013A
:10007D00701AD202E58054107004D28E0515750DDC
:10008D0000750E00E5805410F519800B300208053F
:10009D000EE50E7002050DE50EB45810E50DB40217
:1000AD000B7515000512E51270020511E50EB4DC95
:1000BD0010E50DB4050BC202750D00750E00752F00
:1000CD0001C3E515940174809480404A300347C202
:1000DD0003E50C25E0FFE50B33FEE5317A002FF546
:1000ED000CEA3EF50BE515640C702BE510B50C15FF
:1000FD00E50FB50B10C203850B13850C14750B00A2
:10010D00750C008006850B0F850C10750B00750C9A
:10011D0000751500C203E5A05401651760120000BB
:10012D00E5A0540165176008D201E5A05401F5174B
:10013D003001020518E518C395334014E53064010C
:10014D00700975CDFF75CCFE75C801751800C2011B
:10015D00E52F6401700F753201F52F851334851469
:05016D0035F513F51447
:0D017200D007D006D005D002D0D0D0E032AA
:10042000E4FEEEC39F501AE4FDEDC3940274809481
:1004300080500B00000000000000000D80EB0E80DB
:01044000E1DA
:010441002298
:0300000002001EDD
:0C001E00787FE4F6D8FD7581350202A25F
:10017F00E709F608DFFA8046E709F208DFFA803E62
:10018F0088828C83E709F0A3DFFA8032E309F6084F
:10019F00DFFA8078E309F208DFFA807088828C83B7
:1001AF00E309F0A3DFFA806489828A83E0A3F6086B
:1001BF00DFFA805889828A83E0A3F208DFFA804C45
:1001CF0080D280FA80C680D4806980F2803380101C
:1001DF0080A680EA809A80A880DA80E280CA803385
:1001EF0089828A83ECFAE493A3C8C582C8CCC583FD
:1001FF00CCF0A3C8C582C8CCC583CCDFE9DEE780CD
:10020F000D89828A83E493A3F608DFF9ECFAA9F04B
:10021F00EDFB2289828A83ECFAE0A3C8C582C8CCA1
:10022F00C583CCF0A3C8C582C8CCC583CCDFEADEBA
:10023F00E880DB89828A83E493A3F208DFF980CC1C
:10024F0088F0EF60010E4E60C388F0ED2402B40415
:10025F000050B9F582EB2402B4040050AF232345BC
:06026F0082239001CF7311
:10027500D083D082F8E4937012740193700DA3A318
:1002850093F8740193F5828883E473740293B5F04F
:0D029500067403936860E9A3A3A3A380D8B7
:00000001FF
