:0A0FF600FFFFFFFFFFFFF65AA5AF53
:1002880075865A12042212000E75FAFE75F9EF757A
:10029800E410E4F5FB75303C75865AE5328531F09B
:1002A80012025B02C4023902C9025F02BF0277026E
:1002B800CE027E000002D3753001800F75301480A5
:1002C8000A753032800575303C8000AF3012034427
:1002D800E52F64017049F52FE5328531F012025B94
:1002E80002F8026F030B027B030F027D000003225A
:1002F800C3E530941474809480401D74F62530F55D
:10030800308015B2048013D3E53094327480948021
:100318005006740A2530F5308000AF3012034420AF
:100328000414E590540164017006752D010202A0C1
:0C033800E4F52D0202A0E4F52D0202A065
:0A043B00C0F9A4B0999282F88090F5
:020344008F2107
:1003460078227C007D007BFF7A04793B7E007F0A61
:10035600120235C287D282C283E52175F00A84244F
:1003660022F8E6F5907F0A1203E47590FF7F0112EA
:1003760003E4D287C282D283E52175F00A8474220F
:1003860025F0F8E6F5907F0A1203E47590FF7F01E9
:030396000203E47B
:10042200758D9B758B9B758C9B758A9B7589667583
:09043200E72275885075A88A22A2
:0D000E0075CDE575CCF5E4F5C843A8A0223A
:03002B00020406C6
:1004060075CDE575CCF553C0BF200005C285D20079
:0B04160032300007C200D28575C8001C
:0104210032A8
:03001B0002039944
:04039900C0E0C0D030
:10039D000508C3E508940A748094805019E58054CB
:1003AD00106410700D00E580541064107024050960
:1003BD008020050A801C750800E509D3950A4005C3
:1003CD00752E018003752E00750900750A00D20384
:0203DD00C28ECE
:0503DF00D0D0D0E03297
:03000B0002002EC2
:10002E00C0E0C0D075D000C002C004C005C006C07C
:01003E0007BA
:10003F000516C3E516946474809480400575160008
:10004F00B280E5805410651960240000E5805410DB
:10005F0065196025D202E58054107004D28E051503
:10006F00750D00750E00E5805410F519800B3002E8
:10007F0008050EE50E7002050DE50EB45810E50DDE
:10008F00B4020B7515000512E51270020511E50E8D
:10009F00B4DC10E50DB4050BC202750D00750E0032
:1000AF00752C01E515FDC39401748094804049308F
:1000BF000346C203E50C25E0FFE50B33FE7A00EFA4
:1000CF00252EF50CEA3EF50BED640C702BE510B503
:1000DF000C15E50FB50B10C203850B13850C1475AA
:1000EF000B00750C008006850B0F850C10750B002F
:1000FF00750C00751500C203E5A054016517601259
:10010F000000E5A0540165176008D201E5A0540175
:10011F00F5173001020518E518C395304014E52D89
:10012F006401700975CDFF75CCFE75C80175180097
:10013F00C201E52C6401700F752F01F52C85133169
:07014F00851432F513F514CD
:0F015600D007D006D005D004D002D0D0D0E032F0
:1003E400E4FEEEC39F501AE4FDEDC39402748094BE
:1003F40080500B00000000000000000D80EB0E8018
:01040400E116
:0104050022D4
:0300000002001EDD
:0C001E00787FE4F6D8FD7581320202887C
:10016500E709F608DFFA8046E709F208DFFA803E7C
:1001750088828C83E709F0A3DFFA8032E309F60869
:10018500DFFA8078E309F208DFFA807088828C83D1
:10019500E309F0A3DFFA806489828A83E0A3F60885
:1001A500DFFA805889828A83E0A3F208DFFA804C5F
:1001B50080D280FA80C680D4806980F28033801036
:1001C50080A680EA809A80A880DA80E280CA80339F
:1001D50089828A83ECFAE493A3C8C582C8CCC58317
:1001E500CCF0A3C8C582C8CCC583CCDFE9DEE780E7
:1001F5000D89828A83E493A3F608DFF9ECFAA9F066
:10020500EDFB2289828A83ECFAE0A3C8C582C8CCBB
:10021500C583CCF0A3C8C582C8CCC583CCDFEADED4
:10022500E880DB89828A83E493A3F208DFF980CC36
:1002350088F0EF60010E4E60C388F0ED2402B4042F
:100245000050B9F582EB2402B4040050AF232345D6
:0602550082239001B57345
:10025B00D083D082F8E4937012740193700DA3A332
:10026B0093F8740193F5828883E473740293B5F069
:0D027B00067403936860E9A3A3A3A380D8D1
:00000001FF
