:0A0FF600FFFFFFFFFFFFF65AA5AF53
:10023E0075865A12039912000E75FAFF75F9EF754D
:10024E00E410E4F5FB75173C75865AE5198518F030
:10025E00120124028B0239029A025F0286026F0299
:10026E008102770295027B0290027D029F027E0040
:10027E000002A9751701801C75170A8017751714CF
:10028E00801275171E800D7517288008751732801D
:10029E000375173CAF171202B380ADE4F517AF1715
:0502AE001202B380A361
:0A03B200C0F9A4B0999282F880907F
:0202B3008F2199
:1002B50078227C007D007BFF7A0379B27E007F0A7D
:1002C5001200FEC287D282C283E52175F00A84241A
:1002D50022F8E6F5907F0A1203777590FF7F0112E9
:1002E5000377D287C282D283E52175F00A8474220E
:1002F50025F0F8E6F5907F0A1203777590FF7F01E8
:0303050002037779
:10039900758D9B758B9B758C9B758A9B758966750D
:0903A900E72275885075A88A222C
:0D000E0075CDE575CCF5E4F5C843A8A0223A
:03002B0002034E7F
:02034E00C0E00D
:1003500075CDE575CCF5E5C054406440701653C0CA
:10036000BF200006C285D200800A300007C200D23A
:040370008575C800C7
:03037400D0E032A4
:03001B00020308D5
:04030800C0E0C0D0C1
:10030C000508C3E508940A748094805010E5805465
:10031C00106410700405098024050A8020750800FB
:10032C00E509D3950A4007751601D280800575162C
:0D033C0000C280750900750A00D202C28E51
:05034900D0D0D0E0322D
:03000B000201519E
:10015100C0E0C0D075D000C002C004C005C006C058
:010161000796
:100162000512C3E5129464748094804005751200F0
:10017200B280E580541065156018E5805410700453
:10018200D28E0511750D00750E00E5805410F5151F
:100192008008050EE50E7002050DC3E50E9458E5C4
:1001A2000D94024009750D00750E00751100E511E0
:1001B200FDC39401748094804049300246C202E536
:1001C2000C25E0FFE50B33FE7A00EF2516F50CEA6D
:1001D2003EF50BED640C702BE510B50C15E50FB573
:1001E2000B10C202850B18850C19750B00750C00DB
:1001F2008006850B0F850C10750B00750C007511B0
:1002020000C202E5A0540165136008D201E5A054C2
:1002120001F5133001020514E514C39517400E755C
:0D022200CDFF75CCFE75C801751400C2013A
:0F022F00D007D006D005D004D002D0D0D0E03216
:10037700E4FEEEC39F501AE4FDEDC394027480942B
:1003870080500B00000000000000000D80EB0E8085
:01039700E184
:010398002242
:0300000002001EDD
:0C001E00787FE4F6D8FD75812B02023ECD
:10002E00E709F608DFFA8046E709F208DFFA803EB4
:10003E0088828C83E709F0A3DFFA8032E309F608A1
:10004E00DFFA8078E309F208DFFA807088828C8309
:10005E00E309F0A3DFFA806489828A83E0A3F608BD
:10006E00DFFA805889828A83E0A3F208DFFA804C97
:10007E0080D280FA80C680D4806980F2803380106E
:10008E0080A680EA809A80A880DA80E280CA8033D7
:10009E0089828A83ECFAE493A3C8C582C8CCC5834F
:1000AE00CCF0A3C8C582C8CCC583CCDFE9DEE7801F
:1000BE000D89828A83E493A3F608DFF9ECFAA9F09E
:1000CE00EDFB2289828A83ECFAE0A3C8C582C8CCF4
:1000DE00C583CCF0A3C8C582C8CCC583CCDFEADE0D
:1000EE00E880DB89828A83E493A3F208DFF980CC6F
:1000FE0088F0EF60010E4E60C388F0ED2402B40468
:10010E000050B9F582EB2402B4040050AF2323450E
:06011E00822390007E73B5
:10012400D083D082F8E4937012740193700DA3A36A
:1001340093F8740193F5828883E473740293B5F0A1
:0D014400067403936860E9A3A3A3A380D809
:00000001FF
