:0A0FF600FFFFFFFFFFFFF65AA5AF53
:10025E0075865A1203F412000E75FAFD75F9EF75D4
:10026E00E410E4F5FB751B3C75865AE51D851CF004
:10027E0012012402B9023902D6025F02BE026F02D7
:10028E00A1027702D1027B02A6027D02DB027E0072
:10029E000002E0751B018029D3E51B943274809413
:1002AE00805006740A251BF51B8016751B148025BD
:1002BE00C3E51B941474809480400674F6251BF5D8
:1002CE001B80126318FF800D751B328008751B3C56
:1002DE008003E4F51BAF1B120308E51864017014CC
:1002EE00E590540264027006751901020276E4F577
:0A02FE0019020276E4F519020276F7
:0A040D00C0F9A4B0999282F8809023
:020308008F2143
:10030A0078227C007D007BFF7A04790D7E007F0ACB
:10031A001200FEC287D282C283E52175F00A8424C4
:10032A0022F8E6F5907F0A1203D27590FF7F011238
:10033A0003D2D287C282D283E52175F00A8474225D
:10034A0025F0F8E6F5907F0A1203D27590FF7F0137
:03035A000203D2C9
:1003F400758D9B758B9B758C9B758A9B75896675B2
:09040400E72275885075A88A22D0
:0D000E0075CDE575CCF5E4F5C843A8A0223A
:03002B000203A32A
:0203A300C0E0B8
:1003A50075CDE575CCF5E5C054406440701C53C06F
:1003B500BF20000CE51964017002C285D200800AD5
:0A03C500300007C200D28575C800A1
:0303CF00D0E03249
:03001B0002035D80
:04035D00C0E0C0D06C
:100361000508C3E508940A748094805010E5805410
:10037100106410700405098024050A8020750800A6
:10038100E509D3950A4007751A01D2808005751ACF
:0D03910000C280750900750A00D203C28EFB
:05039E00D0D0D0E032D8
:03000B000201519E
:10015100C0E0C0D075D000C002C004C005C006C058
:010161000796
:100162000514C3E5149464748094804005751400EA
:10017200B280E580541065176018E5805410700451
:10018200D28E0513750D00750E00E5805410F5171B
:100192008008050EE50E7002050DC3E50E9458E5C4
:1001A2000D9402400B7513000512E5127002051141
:1001B200C3E50E94DCE50D94054008750D00750E3F
:1001C20000D202E513FDC394017480948040543040
:1001D2000351C203E50C25E0FFE50B33FE7A00EF85
:1001E200251AF50CEA3EF50BED640C7036E510B5F8
:1001F2000C20E50FB50B1BC20330020EC2027511B3
:1002020000751200850B1C850C1D750B00750C000A
:100212008006850B0F850C10750B00750C0075138D
:1002220000C203E5A0540165156008D201E5A0549F
:1002320001F5153001020516E516C3951B400E7532
:0D024200CDFF75CCFE75C801751600C20118
:0F024F00D007D006D005D004D002D0D0D0E032F6
:1003D200E4FEEEC39F501AE4FDEDC39402748094D0
:1003E20080500B00000000000000000D80EB0E802A
:0103F200E129
:0103F30022E7
:0300000002001EDD
:0C001E00787FE4F6D8FD75812B02025EAD
:10002E00E709F608DFFA8046E709F208DFFA803EB4
:10003E0088828C83E709F0A3DFFA8032E309F608A1
:10004E00DFFA8078E309F208DFFA807088828C8309
:10005E00E309F0A3DFFA806489828A83E0A3F608BD
:10006E00DFFA805889828A83E0A3F208DFFA804C97
:10007E0080D280FA80C680D4806980F2803380106E
:10008E0080A680EA809A80A880DA80E280CA8033D7
:10009E0089828A83ECFAE493A3C8C582C8CCC5834F
:1000AE00CCF0A3C8C582C8CCC583CCDFE9DEE7801F
:1000BE000D89828A83E493A3F608DFF9ECFAA9F09E
:1000CE00EDFB2289828A83ECFAE0A3C8C582C8CCF4
:1000DE00C583CCF0A3C8C582C8CCC583CCDFEADE0D
:1000EE00E880DB89828A83E493A3F208DFF980CC6F
:1000FE0088F0EF60010E4E60C388F0ED2402B40468
:10010E000050B9F582EB2402B4040050AF2323450E
:06011E00822390007E73B5
:10012400D083D082F8E4937012740193700DA3A36A
:1001340093F8740193F5828883E473740293B5F0A1
:0D014400067403936860E9A3A3A3A380D809
:00000001FF
