:0A0FF600FFFFFFFFFFFFF65AA5AF53
:100A370075865A120B89120BBB75FAFE75F9EF759D
:100A4700E410E4F5FB751D3C75865AE51F851EF01D
:100A57001208F60A8E02390AA7025F0A93026F0A82
:100A67007A02770AA2027B0A7F027D0AAC027E0025
:100A7700000AB1751D018021E51DD394325006741B
:100A87000A251DF51D8012751D14801EE51DC394D2
:100A970014400674F6251DF51D800F631AFF800AA2
:100AA700751D328005751D3C8000AF1D120ACFE50C
:100AB7001AB4010FE59030E005751B01808AE4F553
:080AC7001B8085E4F51B808013
:0A0BD400C0F9A4B0999282F8809055
:020ACF008F2175
:100AD10078227C007D007BFF7A0B79D47E007F0A2F
:100AE1001208D0C287D282C283E52175F00A84241C
:100AF10022F8E6F5907F0A120BA27590FF7F011292
:100B01000BA2D287C282D283E52175F00A847422B6
:100B110025F0F8E6F5907F0A120BA27590FF7F0190
:030B2100020BA222
:100B8900758D9B758B9B758C9B758A9B7589667515
:090B9900E72275885075A88A2234
:0D0BBB0075CDE575CCF5E4F5C843A8A02282
:03002B00020B6362
:020B6300C0E0F0
:100B650075CDE575CCF5E5C030E61653C0BF200060
:100B750006C285D200800A300007C200D28575C83A
:010B8500006F
:030B8600D0E0328A
:03001B00020B24B1
:040B2400C0E0C0D09D
:100B28000508E508C3940A500DE58030E40405097A
:100B38008024050A8020750800E509D3950A400736
:100B4800751C01D2808005751C00C280750900756E
:060B58000A00D203C28E68
:050B5E00D0D0D0E03210
:03000B00020923C4
:0D092300C0E0C0D075D000C004C006C00701
:100930000516E516C394644005751600B280E5807F
:1009400054106519601FE58020E404D28E051575EA
:100950000D00750E00C202751100751200E580547D
:1009600010F5198008050EE50E7002050DC3E50EA1
:100970009458E50D9402400B7515000512E51270B0
:10098000020511C3E50E94DCE50D94054008750DD4
:1009900000750E00D202E515C394014049300346AC
:1009A000C203E50C25E0FFE50B33FE7C00EF251CC0
:1009B000F50CEC3EF50BE515B40C2BE510B50C155C
:1009C000E50FB50B10C203850B13850C14750B00D6
:1009D000750C008006850B0F850C10750B00750CCF
:1009E00000751500C203E5A0540165176008D20127
:1009F000E5A05401F5173001020518E518C3951D4F
:100A00004013E51BB4010975CDFF75CCFE75C80117
:100A1000751800C201300214C2027511057512DD8D
:0C0A200085131E85141F751E00751F0035
:0B0A2C00D007D006D004D0D0D0E032BC
:100BA200E4FEEEC39F5011E4FD00000000000000CF
:080BB200000DBD02F40E80EA03
:010BBA002218
:03000000020BC828
:0C0BC800787FE4F6D8FD75812B020A3717
:10080000E709F608DFFA8046E709F208DFFA803EDA
:1008100088828C83E709F0A3DFFA8032E309F608C7
:10082000DFFA8078E309F208DFFA807088828C832F
:10083000E309F0A3DFFA806489828A83E0A3F608E3
:10084000DFFA805889828A83E0A3F208DFFA804CBD
:1008500080D280FA80C680D4806980F28033801094
:1008600080A680EA809A80A880DA80E280CA8033FD
:1008700089828A83ECFAE493A3C8C582C8CCC58375
:10088000CCF0A3C8C582C8CCC583CCDFE9DEE78045
:100890000D89828A83E493A3F608DFF9ECFAA9F0C4
:1008A000EDFB2289828A83ECFAE0A3C8C582C8CC1A
:1008B000C583CCF0A3C8C582C8CCC583CCDFEADE33
:1008C000E880DB89828A83E493A3F208DFF980CC95
:1008D00088F0EF60010E4E60C388F0ED2402B4048E
:1008E0000050B9F582EB2402B4040050AF23234535
:0608F00082239008507302
:1008F600D083D082F8E4937012740193700DA3A391
:1009060093F8740193F5828883E473740293B5F0C7
:0D091600067403936860E9A3A3A3A380D82F
:00000001FF
