:0A0FF600FFFFFFFFFFFFF65AA5AF53
:1009240075865A120A86120AB875FAFE75F9EE75BA
:10093400E410E4F5FBC285752546D20475865AE5B4
:10094400278526F0120A3D096402390969025F0904
:100954005F0277096E027E00000973752501800F1E
:10096400752514800A75253280057525468000AFEB
:1009740025120AD1E52464017041F524E527852672
:10098400F0120A3D0998026F09A7027B09AB027DA8
:10099400000009BAE525C39414401974F62525F519
:1009A400258011B204800FE525D3943C5006740AC7
:1009B4002525F5258000AF25120AD120040AE590EB
:1009C40020E0057522018006E4F522752546E590B0
:0C09D40020E0030209407525460209409E
:030AD1008F1C2255
:100A8600758D9B758B9B758C9B758A9B7589667519
:090A9600E72275885075A88A2238
:0D0AB80075CDE575CCF5E4F5C843A8A02286
:03002B00020A6A5C
:100A6A0075CDE575CCF553C0BF200005D285D200FF
:0B0A7A0032300007C200C28575C800C2
:010A8500323E
:03001B000209E0F7
:0909E000C0E0C0D075D000C007D2
:1009E9000508E508C3940A5028E4FF0000E58030B3
:1009F900E404051B8002051A0FBF05EFE51AD3951C
:100A09001B4004050A80020509751B00751A008040
:100A19001C750800E509D3950A4005752301800373
:0D0A2900752300750900750A00D203C28E06
:070A3600D007D0D0D0E03260
:03000B00020800E8
:0D080000C0E0C0D075D000C004C006C00725
:10080D000516E516C394644003751600E580541073
:10081D00651960230000E580541065196024D2022B
:10082D00E58020E404D28E0515750D00750E00E5EA
:10083D00805410F519800B300208050EE50E70027C
:10084D00050DE50EB45810E50DB4020B7515000538
:10085D0012E51270020511E50EB4DC10E50DB405BC
:10086D000BC202750D00750E00752101E515C394BF
:10087D00014049300346C203E50C25E0FFE50B338B
:10088D00FE7C00EF2523F50CEC3EF50BE515B40CC5
:10089D002BE510B50C15E50FB50B10C203850B1329
:1008AD00850C14750B00750C008006850B0F850CDF
:1008BD0010750B00750C00751500C203E580540111
:1008CD00651760120000E580540165176008D201BC
:1008DD00E5805401F5173001020518E518C395257B
:1008ED004013E522B4010975CDFF75CCFE75C80125
:1008FD00751800C201E521B401127524017521009E
:0C090D008513268514277513007514004F
:0B091900D007D006D004D0D0D0E032D0
:100A9F00E4FEEEC39F5011E4FD00000000000000D3
:080AAF00000DBD02F40E80EA07
:010AB700221C
:03000000020AC52C
:0C0AC500787FE4F6D8FD75812702092433
:100A3D00D083D082F8E4937012740193700DA3A348
:100A4D0093F8740193F5828883E473740293B5F07F
:0D0A5D00067403936860E9A3A3A3A380D8E7
:00000001FF
