:0A0FF600FFFFFFFFFFFFF65AA5AF53
:1002880075865A12043612000E75FAFE75F9EF7566
:10029800E410E4F5FB75313C75865AE5338532F098
:1002A80012025B02C4023902C9025F02BF0277026E
:1002B800CE027E000002D3753101800F75311480A3
:1002C8000A753132800575313C8000AF3112034721
:1002D800E5306401704AF530E5338532F012025B8F
:1002E80002F8026F030B027B0310027D0000032358
:1002F800C3E531941474809480401E74F62531F55A
:10030800318016632CFF8013D3E5319432748094C6
:10031800805006740A2531F5318000AF3112034749
:10032800E52CF47014E590540164017006752E01F3
:0F0338000202A0E4F52E0202A0E4F52E0202A0BC
:0A044F00C0F9A4B0999282F88090E1
:020347008F2104
:1003490078227C007D007BFF7A04794F7E007F0A4A
:10035900120235C287D282C283E52175F00A84244C
:1003690022F8E6F5907F0A1204147590FF7F0112B6
:100379000414D287C282D283E52175F00A847422DB
:1003890025F0F8E6F5907F0A1204147590FF7F01B5
:0303990002041447
:10043600758D9B758B9B758C9B758A9B758966756F
:09044600E72275885075A88A228E
:0D000E0075CDE575CCF5E4F5C843A8A0223A
:03002B000203EBE2
:0203EB00C0E070
:1003ED0075CDE575CCF5E5C054406440701653C02D
:1003FD00BF200006C285D200800A300007C200D29D
:04040D008575C80029
:03041100D0E03206
:03001B0002039C41
:04039C00C0E0C0D02D
:1003A0000508C3E508940A748094805019E58054C8
:1003B000106410700D00E580541064107028050959
:1003C0008024050A8020750800E509D3950A4007B6
:1003D000752F01D2808005752F00C28075090075C8
:0603E0000A00D203C28EE8
:0503E600D0D0D0E03290
:03000B0002002EC2
:10002E00C0E0C0D075D000C002C004C005C006C07C
:01003E0007BA
:10003F000516C3E516946474809480400575160008
:10004F00B280E5805410651960240000E5805410DB
:10005F0065196025D202E58054107004D28E051503
:10006F00750D00750E00E5805410F519800B3002E8
:10007F0008050EE50E7002050DE50EB45810E50DDE
:10008F00B4020B7515000512E51270020511E50E8D
:10009F00B4DC10E50DB4050BC202750D00750E0032
:1000AF00752D01E515FDC39401748094804049308E
:1000BF000346C203E50C25E0FFE50B33FE7A00EFA4
:1000CF00252FF50CEA3EF50BED640C702BE510B502
:1000DF000C15E50FB50B10C203850B13850C1475AA
:1000EF000B00750C008006850B0F850C10750B002F
:1000FF00750C00751500C203E5A054016517601259
:10010F000000E5A0540165176008D201E5A0540175
:10011F00F5173001020518E518C395314014E52E87
:10012F006401700975CDFF75CCFE75C80175180097
:10013F00C201E52D6401700F753001F52D85133265
:07014F00851433F513F514CC
:0F015600D007D006D005D004D002D0D0D0E032F0
:10041400E4FEEEC39F501AE4FDEDC394027480948D
:1004240080500B00000000000000000D80EB0E80E7
:01043400E1E6
:0104350022A4
:0300000002001EDD
:0C001E00787FE4F6D8FD7581330202887B
:10016500E709F608DFFA8046E709F208DFFA803E7C
:1001750088828C83E709F0A3DFFA8032E309F60869
:10018500DFFA8078E309F208DFFA807088828C83D1
:10019500E309F0A3DFFA806489828A83E0A3F60885
:1001A500DFFA805889828A83E0A3F208DFFA804C5F
:1001B50080D280FA80C680D4806980F28033801036
:1001C50080A680EA809A80A880DA80E280CA80339F
:1001D50089828A83ECFAE493A3C8C582C8CCC58317
:1001E500CCF0A3C8C582C8CCC583CCDFE9DEE780E7
:1001F5000D89828A83E493A3F608DFF9ECFAA9F066
:10020500EDFB2289828A83ECFAE0A3C8C582C8CCBB
:10021500C583CCF0A3C8C582C8CCC583CCDFEADED4
:10022500E880DB89828A83E493A3F208DFF980CC36
:1002350088F0EF60010E4E60C388F0ED2402B4042F
:100245000050B9F582EB2402B4040050AF232345D6
:0602550082239001B57345
:10025B00D083D082F8E4937012740193700DA3A332
:10026B0093F8740193F5828883E473740293B5F069
:0D027B00067403936860E9A3A3A3A380D8D1
:00000001FF
